:1000000044EF01F00000000000EF00F000000000ED
:0A0010000000000000000000F3D71C
:0A001C00210E0D6E0D2EFED712000E
:100026000F0E0C6E470E0D6E0D2EFED70C2EFCD746
:06003600000000001200B2
:06003C00000000001200AC
:1000420025BE02D0819601D0818625BC02D0819442
:1000520001D0818425BA02D0819201D0818225B853
:1000620002D0819001D081801CB002D0818801D061
:100072008198818AE2DF819A25B602D0819601D0E9
:10008200818625B402D0819401D0818425B202D028
:10009200819201D0818225B002D0819001D08180ED
:1000A2001CB002D0818801D08198818AC6DF819AF2
:0C00B2001CA002D0B7DF01D0B0DF1200AC
:1000BE000FD0800E226E19D0C00E226E16D0940E66
:1000CE00226E13D0D40E226E10D0800E226E0DD062
:1000DE002250010AEEE02250020AEEE02250030AFC
:1000EE00EEE02250040AEEE0F0D72304006E225018
:1000FE00002600C022F01C8000C025F09BDF1C9063
:0A010E0024C025F097DF1C801200CA
:0C0118001C9022C025F091DF1C8012001A
:10012400939A93989390939293949396819A8198A7
:10013400819681948192819074DF73DF72DF818272
:100144008180818A79DF819A6CDF818A75DF819A67
:1001540068DF818A71DF819A64DF8190818A6CDF34
:10016400819A5FDF818A68DF819A81928186818AA0
:1001740063DF819A56DF81968180818A5DDF819A6F
:100184008190818A59DF819A4CDF818A55DF819A77
:100194008180818A51DF819A44DF8190818A4CDF9A
:1001A400819A8186818481828180818A45DF819AD6
:0601B40038DF1C80120080
:1001BA000900F5CFE6FF0006FBE10106F9E11200AE
:1001CA000FD0800E1D6E19D0C00E1D6E16D0940E63
:1001DA001D6E13D0D40E1D6E10D0800E1D6E0DD064
:1001EA001D50010AEEE01D50020AEEE01D50030AFE
:1001FA00EEE01D50040AEEE0F0D71E04006E1D501A
:10020A00002600C01DF000C025F016DF1C90216AF0
:10021A0021501F24E96E000E2020EA6EEE520BE0F8
:10022A0021501F24E96E000E2020EA6EEECF22F044
:0A023A006EDF212AEDD71C801200B0
:10024400400E256EFCDE1F6A1F50070811E3F60EF0
:100254001F24F66E020EF76E000EF722000EF86EE3
:10026400000EF8220900F5CF22F054DF1F2AECD744
:10027400020E256EE4DE1DC022F01EC023F0246AA7
:040284001CDF120069
:100288006D0E156E690E166E6B0E176E720E186E69
:100298006F0E196E430E1A6E1B6A40DF010E256E33
:1002A800CCDE0C0E256EC9DE020E226E040E236E05
:1002B800490E246E00DF020E1D6E060E1E6EBEDF96
:1002C800020E1D6E080E1E6E150E1F6E000E206E9D
:1002D80078DF1F0E0B6E710E0C6E1E0E0D6E0D2E3E
:0E02E800FED70C2EFCD70B2EFAD70000FFD746
:0802F600000A1F1F0E040000A6
:020000040030CA
:0D000100021F1EFF8081FF3FC03FE03F4017
:00000001FF
