:10000000AAEF00F00000000000EF00F00000000088
:0A0010000000000000000000F3D71C
:06001C00000000001200CC
:100022000F0E0C6E470E0D6E0D2EFED70C2EFCD74A
:06003200000000001200B6
:0A003800210E0D6E0D2EFED71200F2
:10004200939A93989390939293949396819A81988A
:100052008196819481928190E3DFE2DFE1DF818208
:100062008180818ADADF819ADBDF818AD6DF819A19
:10007200D7DF818AD2DF819AD3DF8190818ACDDF77
:10008200819ACEDF818AC9DF819A81928186818AB3
:10009200C4DF819AC5DF81968180818ABEDF819A21
:1000A2008190818ABADF819ABBDF818AB6DF819A29
:1000B2008180818AB2DF819AB3DF8190818AADDF4C
:1000C200819A8186818481828180818AA6DF819A58
:0600D200A7DF15801200FB
:1000D80016BE02D0819601D0818616BC02D08194CA
:1000E80001D0818416BA02D0819201D0818216B8DB
:1000F80002D0819001D0818015B002D0818801D0D2
:100108008198818A87DF819A16B602D0819601D0BC
:10011800818616B402D0819401D0818416B202D0AF
:10012800819201D0818216B002D0819001D0818065
:1001380015B002D0818801D08198818A6BDF819ABD
:0C01480015A002D06ADF01D073DF1200A6
:1001540076DF010E166EBEDF0C0E166EBBDF1F0EB1
:100164000B6E710E0C6E1E0E0D6E0D2EFED70C2E28
:0A017400FCD70B2EFAD70000FFD7CE
:020000040030CA
:0D000100021F1EFF8081FF3FC03FE03F4017
:00000001FF
